{
  "address": "0x979BD505321C7067c4678E73d65ddEbDA779A871",
  "abi": [
    {
      "inputs": [
        {
          "internalType": "address",
          "name": "approve",
          "type": "address"
        }
      ],
      "stateMutability": "nonpayable",
      "type": "constructor"
    },
    {
      "anonymous": false,
      "inputs": [
        {
          "indexed": true,
          "internalType": "address",
          "name": "previousOwner",
          "type": "address"
        },
        {
          "indexed": true,
          "internalType": "address",
          "name": "newOwner",
          "type": "address"
        }
      ],
      "name": "OwnershipTransferPrepared",
      "type": "event"
    },
    {
      "anonymous": false,
      "inputs": [
        {
          "indexed": true,
          "internalType": "address",
          "name": "previousOwner",
          "type": "address"
        },
        {
          "indexed": true,
          "internalType": "address",
          "name": "newOwner",
          "type": "address"
        }
      ],
      "name": "OwnershipTransferred",
      "type": "event"
    },
    {
      "inputs": [],
      "name": "_APPROVE_",
      "outputs": [
        {
          "internalType": "address",
          "name": "",
          "type": "address"
        }
      ],
      "stateMutability": "view",
      "type": "function"
    },
    {
      "inputs": [
        {
          "internalType": "address",
          "name": "",
          "type": "address"
        }
      ],
      "name": "_IS_ALLOWED_PROXY_",
      "outputs": [
        {
          "internalType": "bool",
          "name": "",
          "type": "bool"
        }
      ],
      "stateMutability": "view",
      "type": "function"
    },
    {
      "inputs": [],
      "name": "_NEW_OWNER_",
      "outputs": [
        {
          "internalType": "address",
          "name": "",
          "type": "address"
        }
      ],
      "stateMutability": "view",
      "type": "function"
    },
    {
      "inputs": [],
      "name": "_OWNER_",
      "outputs": [
        {
          "internalType": "address",
          "name": "",
          "type": "address"
        }
      ],
      "stateMutability": "view",
      "type": "function"
    },
    {
      "inputs": [],
      "name": "_PENDING_ADD_PROXY_",
      "outputs": [
        {
          "internalType": "address",
          "name": "",
          "type": "address"
        }
      ],
      "stateMutability": "view",
      "type": "function"
    },
    {
      "inputs": [],
      "name": "addProxy",
      "outputs": [],
      "stateMutability": "nonpayable",
      "type": "function"
    },
    {
      "inputs": [],
      "name": "claimOwnership",
      "outputs": [],
      "stateMutability": "nonpayable",
      "type": "function"
    },
    {
      "inputs": [
        {
          "internalType": "address",
          "name": "token",
          "type": "address"
        },
        {
          "internalType": "address",
          "name": "from",
          "type": "address"
        },
        {
          "internalType": "address",
          "name": "to",
          "type": "address"
        },
        {
          "internalType": "uint256",
          "name": "amount",
          "type": "uint256"
        }
      ],
      "name": "claimTokens",
      "outputs": [],
      "stateMutability": "nonpayable",
      "type": "function"
    },
    {
      "inputs": [
        {
          "internalType": "address",
          "name": "owner",
          "type": "address"
        },
        {
          "internalType": "address[]",
          "name": "proxies",
          "type": "address[]"
        }
      ],
      "name": "init",
      "outputs": [],
      "stateMutability": "nonpayable",
      "type": "function"
    },
    {
      "inputs": [
        {
          "internalType": "address",
          "name": "newOwner",
          "type": "address"
        }
      ],
      "name": "initOwner",
      "outputs": [],
      "stateMutability": "nonpayable",
      "type": "function"
    },
    {
      "inputs": [
        {
          "internalType": "address",
          "name": "_proxy",
          "type": "address"
        }
      ],
      "name": "isAllowedProxy",
      "outputs": [
        {
          "internalType": "bool",
          "name": "",
          "type": "bool"
        }
      ],
      "stateMutability": "view",
      "type": "function"
    },
    {
      "inputs": [],
      "name": "lockAddProxy",
      "outputs": [],
      "stateMutability": "nonpayable",
      "type": "function"
    },
    {
      "inputs": [
        {
          "internalType": "address",
          "name": "oldProxy",
          "type": "address"
        }
      ],
      "name": "removeProxy",
      "outputs": [],
      "stateMutability": "nonpayable",
      "type": "function"
    },
    {
      "inputs": [
        {
          "internalType": "address",
          "name": "newOwner",
          "type": "address"
        }
      ],
      "name": "transferOwnership",
      "outputs": [],
      "stateMutability": "nonpayable",
      "type": "function"
    },
    {
      "inputs": [
        {
          "internalType": "address",
          "name": "newProxy",
          "type": "address"
        }
      ],
      "name": "unlockAddProxy",
      "outputs": [],
      "stateMutability": "nonpayable",
      "type": "function"
    }
  ],
  "transactionHash": "0xcb580e31e9f73305f49a3622d6e15adb7b27175b728b9399ca02d96102c57013",
  "args": [
    "0x13CA687E8068A20B27C60Ef510e1dF902E24FCf3"
  ],
  "numDeployments": 1,
  "solcInputHash": "36479a67904949b8fba17c4401077ab8",
  "bytecode": "0x60a060405234801561001057600080fd5b50604051610a0f380380610a0f83398101604081905261002f91610040565b6001600160a01b0316608052610070565b60006020828403121561005257600080fd5b81516001600160a01b038116811461006957600080fd5b9392505050565b60805161097d6100926000396000818161022d0152610315015261097d6000f3fe608060405234801561001057600080fd5b50600436106100f55760003560e01c806348a4f99311610097578063be116c3b11610066578063be116c3b14610202578063e93dfdac14610215578063ef2d778314610228578063f2fde38b1461024f57600080fd5b806348a4f993146101b35780634e71e0c8146101df578063556d65a8146101e75780638456db15146101ef57600080fd5b806323142a23116100d357806323142a2314610152578063374445b21461015a5780633b2f27bb1461016d5780633c5a3cea146101a057600080fd5b80630a5ea466146100fa5780630d0092971461010f57806316048bc414610122575b600080fd5b61010d6101083660046107af565b610262565b005b61010d61011d3660046107fa565b610377565b600054610135906001600160a01b031681565b6040516001600160a01b0390911681526020015b60405180910390f35b61010d610422565b61010d6101683660046107fa565b610497565b61019061017b3660046107fa565b60026020526000908152604090205460ff1681565b6040519015158152602001610149565b61010d6101ae366004610832565b6104ff565b6101906101c13660046107fa565b6001600160a01b031660009081526002602052604090205460ff1690565b61010d610575565b61010d610633565b600154610135906001600160a01b031681565b61010d6102103660046107fa565b61068b565b600354610135906001600160a01b031681565b6101357f000000000000000000000000000000000000000000000000000000000000000081565b61010d61025d3660046107fa565b6106f2565b3360009081526002602052604090205460ff166102c65760405162461bcd60e51b815260206004820152601e60248201527f417070726f766550726f78793a4163636573732072657374726963746564000060448201526064015b60405180910390fd5b6040517f0a5ea4660000000000000000000000000000000000000000000000000000000081526001600160a01b03858116600483015284811660248301528381166044830152606482018390527f00000000000000000000000000000000000000000000000000000000000000001690630a5ea46690608401600060405180830381600087803b15801561035957600080fd5b505af115801561036d573d6000803e3d6000fd5b5050505050505050565b600154600160a01b900460ff16156103d15760405162461bcd60e51b815260206004820152600f60248201527f495a4e5f494e495449414c495a4544000000000000000000000000000000000060448201526064016102bd565b600180547fffffffffffffffffffffff00ffffffffffffffffffffffffffffffffffffffff16600160a01b179055600080546001600160a01b039092166001600160a01b0319909216919091179055565b6000546001600160a01b031633146104685760405162461bcd60e51b81526020600482015260096024820152682727aa2fa7aba722a960b91b60448201526064016102bd565b6003546001600160a01b03166000908152600260205260409020805460ff19166001179055610495610633565b565b6000546001600160a01b031633146104dd5760405162461bcd60e51b81526020600482015260096024820152682727aa2fa7aba722a960b91b60448201526064016102bd565b600380546001600160a01b0319166001600160a01b0392909216919091179055565b61050882610377565b60005b81518110156105705760016002600084848151811061052c5761052c61090a565b6020908102919091018101516001600160a01b03168252810191909152604001600020805460ff19169115159190911790558061056881610920565b91505061050b565b505050565b6001546001600160a01b031633146105cf5760405162461bcd60e51b815260206004820152600d60248201527f494e56414c49445f434c41494d0000000000000000000000000000000000000060448201526064016102bd565b600154600080546040516001600160a01b0393841693909116917f8be0079c531659141344cd1fd0a4f28419497f9722a3daafe3b4186f6b6457e091a360018054600080546001600160a01b03199081166001600160a01b03841617909155169055565b6000546001600160a01b031633146106795760405162461bcd60e51b81526020600482015260096024820152682727aa2fa7aba722a960b91b60448201526064016102bd565b600380546001600160a01b0319169055565b6000546001600160a01b031633146106d15760405162461bcd60e51b81526020600482015260096024820152682727aa2fa7aba722a960b91b60448201526064016102bd565b6001600160a01b03166000908152600260205260409020805460ff19169055565b6000546001600160a01b031633146107385760405162461bcd60e51b81526020600482015260096024820152682727aa2fa7aba722a960b91b60448201526064016102bd565b600080546040516001600160a01b03808516939216917fdcf55418cee3220104fef63f979ff3c4097ad240c0c43dcb33ce837748983e6291a3600180546001600160a01b0319166001600160a01b0392909216919091179055565b80356001600160a01b03811681146107aa57600080fd5b919050565b600080600080608085870312156107c557600080fd5b6107ce85610793565b93506107dc60208601610793565b92506107ea60408601610793565b9396929550929360600135925050565b60006020828403121561080c57600080fd5b61081582610793565b9392505050565b634e487b7160e01b600052604160045260246000fd5b6000806040838503121561084557600080fd5b61084e83610793565b915060208084013567ffffffffffffffff8082111561086c57600080fd5b818601915086601f83011261088057600080fd5b8135818111156108925761089261081c565b8060051b604051601f19603f830116810181811085821117156108b7576108b761081c565b6040529182528482019250838101850191898311156108d557600080fd5b938501935b828510156108fa576108eb85610793565b845293850193928501926108da565b8096505050505050509250929050565b634e487b7160e01b600052603260045260246000fd5b60006001820161094057634e487b7160e01b600052601160045260246000fd5b506001019056fea26469706673582212209c78d3addf96ac5f167f2059384eb4bce208770ff98715cd0b7e698f6847a27064736f6c634300080f0033",
  "devdoc": {
    "author": "DODO Breeder",
    "kind": "dev",
    "methods": {},
    "title": "ApproveProxy",
    "version": 1
  },
  "userdoc": {
    "kind": "user",
    "methods": {},
    "notice": "Allow different version dodoproxy to claim from Approve",
    "version": 1
  },
  "storageLayout": {
    "storage": [
      {
        "astId": 6706,
        "contract": "contracts/SmartRoute/ApproveProxy.sol:ApproveProxy",
        "label": "_OWNER_",
        "offset": 0,
        "slot": "0",
        "type": "t_address"
      },
      {
        "astId": 6708,
        "contract": "contracts/SmartRoute/ApproveProxy.sol:ApproveProxy",
        "label": "_NEW_OWNER_",
        "offset": 0,
        "slot": "1",
        "type": "t_address"
      },
      {
        "astId": 6710,
        "contract": "contracts/SmartRoute/ApproveProxy.sol:ApproveProxy",
        "label": "_INITIALIZED_",
        "offset": 20,
        "slot": "1",
        "type": "t_bool"
      },
      {
        "astId": 1880,
        "contract": "contracts/SmartRoute/ApproveProxy.sol:ApproveProxy",
        "label": "_IS_ALLOWED_PROXY_",
        "offset": 0,
        "slot": "2",
        "type": "t_mapping(t_address,t_bool)"
      },
      {
        "astId": 1882,
        "contract": "contracts/SmartRoute/ApproveProxy.sol:ApproveProxy",
        "label": "_PENDING_ADD_PROXY_",
        "offset": 0,
        "slot": "3",
        "type": "t_address"
      }
    ],
    "types": {
      "t_address": {
        "encoding": "inplace",
        "label": "address",
        "numberOfBytes": "20"
      },
      "t_bool": {
        "encoding": "inplace",
        "label": "bool",
        "numberOfBytes": "1"
      },
      "t_mapping(t_address,t_bool)": {
        "encoding": "mapping",
        "key": "t_address",
        "label": "mapping(address => bool)",
        "numberOfBytes": "32",
        "value": "t_bool"
      }
    }
  }
}