{
  "address": "0x235e7ABe334873df1f7ab4dc774C8fDc93E0a007",
  "abi": [
    {
      "anonymous": false,
      "inputs": [
        {
          "indexed": true,
          "internalType": "address",
          "name": "previousOwner",
          "type": "address"
        },
        {
          "indexed": true,
          "internalType": "address",
          "name": "newOwner",
          "type": "address"
        }
      ],
      "name": "OwnershipTransferPrepared",
      "type": "event"
    },
    {
      "anonymous": false,
      "inputs": [
        {
          "indexed": true,
          "internalType": "address",
          "name": "previousOwner",
          "type": "address"
        },
        {
          "indexed": true,
          "internalType": "address",
          "name": "newOwner",
          "type": "address"
        }
      ],
      "name": "OwnershipTransferred",
      "type": "event"
    },
    {
      "anonymous": false,
      "inputs": [
        {
          "indexed": true,
          "internalType": "address",
          "name": "oldProxy",
          "type": "address"
        },
        {
          "indexed": true,
          "internalType": "address",
          "name": "newProxy",
          "type": "address"
        }
      ],
      "name": "SetProxy",
      "type": "event"
    },
    {
      "inputs": [],
      "name": "_NEW_OWNER_",
      "outputs": [
        {
          "internalType": "address",
          "name": "",
          "type": "address"
        }
      ],
      "stateMutability": "view",
      "type": "function"
    },
    {
      "inputs": [],
      "name": "_OWNER_",
      "outputs": [
        {
          "internalType": "address",
          "name": "",
          "type": "address"
        }
      ],
      "stateMutability": "view",
      "type": "function"
    },
    {
      "inputs": [],
      "name": "_PENDING_PROXY_",
      "outputs": [
        {
          "internalType": "address",
          "name": "",
          "type": "address"
        }
      ],
      "stateMutability": "view",
      "type": "function"
    },
    {
      "inputs": [],
      "name": "_PROXY_",
      "outputs": [
        {
          "internalType": "address",
          "name": "",
          "type": "address"
        }
      ],
      "stateMutability": "view",
      "type": "function"
    },
    {
      "inputs": [],
      "name": "claimOwnership",
      "outputs": [],
      "stateMutability": "nonpayable",
      "type": "function"
    },
    {
      "inputs": [
        {
          "internalType": "address",
          "name": "token",
          "type": "address"
        },
        {
          "internalType": "address",
          "name": "from",
          "type": "address"
        },
        {
          "internalType": "address",
          "name": "to",
          "type": "address"
        },
        {
          "internalType": "uint256",
          "name": "amount",
          "type": "uint256"
        }
      ],
      "name": "claimTokens",
      "outputs": [],
      "stateMutability": "nonpayable",
      "type": "function"
    },
    {
      "inputs": [],
      "name": "getProxy",
      "outputs": [
        {
          "internalType": "address",
          "name": "",
          "type": "address"
        }
      ],
      "stateMutability": "view",
      "type": "function"
    },
    {
      "inputs": [
        {
          "internalType": "address",
          "name": "owner",
          "type": "address"
        },
        {
          "internalType": "address",
          "name": "initProxyAddress",
          "type": "address"
        }
      ],
      "name": "init",
      "outputs": [],
      "stateMutability": "nonpayable",
      "type": "function"
    },
    {
      "inputs": [
        {
          "internalType": "address",
          "name": "newOwner",
          "type": "address"
        }
      ],
      "name": "initOwner",
      "outputs": [],
      "stateMutability": "nonpayable",
      "type": "function"
    },
    {
      "inputs": [],
      "name": "lockSetProxy",
      "outputs": [],
      "stateMutability": "nonpayable",
      "type": "function"
    },
    {
      "inputs": [],
      "name": "setProxy",
      "outputs": [],
      "stateMutability": "nonpayable",
      "type": "function"
    },
    {
      "inputs": [
        {
          "internalType": "address",
          "name": "newOwner",
          "type": "address"
        }
      ],
      "name": "transferOwnership",
      "outputs": [],
      "stateMutability": "nonpayable",
      "type": "function"
    },
    {
      "inputs": [
        {
          "internalType": "address",
          "name": "newProxy",
          "type": "address"
        }
      ],
      "name": "unlockSetProxy",
      "outputs": [],
      "stateMutability": "nonpayable",
      "type": "function"
    }
  ],
  "transactionHash": "0xd30ee0566b2eb314b0cedfa3c931e73f3170e72a1f702039a738ca661e6fffc5",
  "args": [],
  "numDeployments": 1,
  "solcInputHash": "36479a67904949b8fba17c4401077ab8",
  "bytecode": "0x608060405234801561001057600080fd5b50610a7a806100206000396000f3fe608060405234801561001057600080fd5b50600436106100df5760003560e01c80634e71e0c81161008c5780638ccfeeaa116100665780638ccfeeaa1461018c578063933a9ce81461019f578063f09a4016146101b0578063f2fde38b146101c357600080fd5b80634e71e0c8146101695780634f3cef84146101715780638456db151461017957600080fd5b80631df8b0ac116100bd5780631df8b0ac1461013b5780633914a04f1461014e57806341c256c11461015657600080fd5b80630a5ea466146100e45780630d009297146100f957806316048bc41461010c575b600080fd5b6100f76100f236600461090e565b6101d6565b005b6100f7610107366004610959565b610256565b60005461011f906001600160a01b031681565b6040516001600160a01b03909116815260200160405180910390f35b60035461011f906001600160a01b031681565b6100f7610301565b6100f7610164366004610959565b6103b2565b6100f761041a565b6100f76104d8565b60015461011f906001600160a01b031681565b60025461011f906001600160a01b031681565b6003546001600160a01b031661011f565b6100f76101be366004610974565b610530565b6100f76101d1366004610959565b61055c565b6003546001600160a01b031633146102355760405162461bcd60e51b815260206004820152601960248201527f417070726f76653a41636365737320726573747269637465640000000000000060448201526064015b60405180910390fd5b8015610250576102506001600160a01b0385168484846105fd565b50505050565b600154600160a01b900460ff16156102b05760405162461bcd60e51b815260206004820152600f60248201527f495a4e5f494e495449414c495a45440000000000000000000000000000000000604482015260640161022c565b600180547fffffffffffffffffffffff00ffffffffffffffffffffffffffffffffffffffff16600160a01b179055600080546001600160a01b039092166001600160a01b0319909216919091179055565b6000546001600160a01b031633146103475760405162461bcd60e51b81526020600482015260096024820152682727aa2fa7aba722a960b91b604482015260640161022c565b6002546003546040516001600160a01b0392831692909116907f9f5daab72691f212a48ad0e1a6f92b388e4d99019fe1323b1a2b99f2eb87bdaf90600090a3600254600380546001600160a01b0319166001600160a01b039092169190911790556103b06104d8565b565b6000546001600160a01b031633146103f85760405162461bcd60e51b81526020600482015260096024820152682727aa2fa7aba722a960b91b604482015260640161022c565b600280546001600160a01b0319166001600160a01b0392909216919091179055565b6001546001600160a01b031633146104745760405162461bcd60e51b815260206004820152600d60248201527f494e56414c49445f434c41494d00000000000000000000000000000000000000604482015260640161022c565b600154600080546040516001600160a01b0393841693909116917f8be0079c531659141344cd1fd0a4f28419497f9722a3daafe3b4186f6b6457e091a360018054600080546001600160a01b03199081166001600160a01b03841617909155169055565b6000546001600160a01b0316331461051e5760405162461bcd60e51b81526020600482015260096024820152682727aa2fa7aba722a960b91b604482015260640161022c565b600280546001600160a01b0319169055565b61053982610256565b600380546001600160a01b0319166001600160a01b039290921691909117905550565b6000546001600160a01b031633146105a25760405162461bcd60e51b81526020600482015260096024820152682727aa2fa7aba722a960b91b604482015260640161022c565b600080546040516001600160a01b03808516939216917fdcf55418cee3220104fef63f979ff3c4097ad240c0c43dcb33ce837748983e6291a3600180546001600160a01b0319166001600160a01b0392909216919091179055565b604080516001600160a01b038581166024830152848116604483015260648083018590528351808403909101815260849092018352602080830180517bffffffffffffffffffffffffffffffffffffffffffffffffffffffff167f23b872dd0000000000000000000000000000000000000000000000000000000017905283518085019094528084527f5361666545524332303a206c6f772d6c6576656c2063616c6c206661696c656490840152610250928792916000916106c3918516908490610758565b80519091501561075357808060200190518101906106e191906109a7565b6107535760405162461bcd60e51b815260206004820152602a60248201527f5361666545524332303a204552433230206f7065726174696f6e20646964206e60448201527f6f74207375636365656400000000000000000000000000000000000000000000606482015260840161022c565b505050565b60606107678484600085610771565b90505b9392505050565b6060824710156107e95760405162461bcd60e51b815260206004820152602660248201527f416464726573733a20696e73756666696369656e742062616c616e636520666f60448201527f722063616c6c0000000000000000000000000000000000000000000000000000606482015260840161022c565b6001600160a01b0385163b6108405760405162461bcd60e51b815260206004820152601d60248201527f416464726573733a2063616c6c20746f206e6f6e2d636f6e7472616374000000604482015260640161022c565b600080866001600160a01b0316858760405161085c91906109f5565b60006040518083038185875af1925050503d8060008114610899576040519150601f19603f3d011682016040523d82523d6000602084013e61089e565b606091505b50915091506108ae8282866108b9565b979650505050505050565b606083156108c857508161076a565b8251156108d85782518084602001fd5b8160405162461bcd60e51b815260040161022c9190610a11565b80356001600160a01b038116811461090957600080fd5b919050565b6000806000806080858703121561092457600080fd5b61092d856108f2565b935061093b602086016108f2565b9250610949604086016108f2565b9396929550929360600135925050565b60006020828403121561096b57600080fd5b61076a826108f2565b6000806040838503121561098757600080fd5b610990836108f2565b915061099e602084016108f2565b90509250929050565b6000602082840312156109b957600080fd5b8151801515811461076a57600080fd5b60005b838110156109e45781810151838201526020016109cc565b838111156102505750506000910152565b60008251610a078184602087016109c9565b9190910192915050565b6020815260008251806020840152610a308160408501602087016109c9565b601f01601f1916919091016040019291505056fea264697066735822122008ed444ad6f895231267b861df307ab4fe8cbf64df2807ac08f9ae6ec1a4b6e264736f6c634300080f0033",
  "devdoc": {
    "kind": "dev",
    "methods": {},
    "version": 1
  },
  "userdoc": {
    "kind": "user",
    "methods": {},
    "version": 1
  },
  "storageLayout": {
    "storage": [
      {
        "astId": 6706,
        "contract": "contracts/SmartRoute/Approve.sol:Approve",
        "label": "_OWNER_",
        "offset": 0,
        "slot": "0",
        "type": "t_address"
      },
      {
        "astId": 6708,
        "contract": "contracts/SmartRoute/Approve.sol:Approve",
        "label": "_NEW_OWNER_",
        "offset": 0,
        "slot": "1",
        "type": "t_address"
      },
      {
        "astId": 6710,
        "contract": "contracts/SmartRoute/Approve.sol:Approve",
        "label": "_INITIALIZED_",
        "offset": 20,
        "slot": "1",
        "type": "t_bool"
      },
      {
        "astId": 1738,
        "contract": "contracts/SmartRoute/Approve.sol:Approve",
        "label": "_PENDING_PROXY_",
        "offset": 0,
        "slot": "2",
        "type": "t_address"
      },
      {
        "astId": 1740,
        "contract": "contracts/SmartRoute/Approve.sol:Approve",
        "label": "_PROXY_",
        "offset": 0,
        "slot": "3",
        "type": "t_address"
      }
    ],
    "types": {
      "t_address": {
        "encoding": "inplace",
        "label": "address",
        "numberOfBytes": "20"
      },
      "t_bool": {
        "encoding": "inplace",
        "label": "bool",
        "numberOfBytes": "1"
      }
    }
  }
}