{
  "address": "0xF563f64e50C8989656995E7593A0d79f5e4Cb80F",
  "abi": [
    {
      "inputs": [
        {
          "internalType": "address",
          "name": "approveProxy",
          "type": "address"
        },
        {
          "internalType": "address",
          "name": "_addressProvider",
          "type": "address"
        }
      ],
      "stateMutability": "nonpayable",
      "type": "constructor"
    },
    {
      "anonymous": false,
      "inputs": [
        {
          "indexed": true,
          "internalType": "address",
          "name": "_from",
          "type": "address"
        },
        {
          "indexed": true,
          "internalType": "address",
          "name": "_assetAddress",
          "type": "address"
        },
        {
          "indexed": false,
          "internalType": "uint256",
          "name": "amount",
          "type": "uint256"
        }
      ],
      "name": "LogWithdraw",
      "type": "event"
    },
    {
      "anonymous": false,
      "inputs": [
        {
          "indexed": false,
          "internalType": "address",
          "name": "fromToken",
          "type": "address"
        },
        {
          "indexed": false,
          "internalType": "address",
          "name": "toToken",
          "type": "address"
        },
        {
          "indexed": false,
          "internalType": "address",
          "name": "sender",
          "type": "address"
        },
        {
          "indexed": false,
          "internalType": "uint256",
          "name": "fromAmount",
          "type": "uint256"
        },
        {
          "indexed": false,
          "internalType": "uint256",
          "name": "returnAmount",
          "type": "uint256"
        }
      ],
      "name": "OrderHistory",
      "type": "event"
    },
    {
      "anonymous": false,
      "inputs": [
        {
          "indexed": true,
          "internalType": "address",
          "name": "previousOwner",
          "type": "address"
        },
        {
          "indexed": true,
          "internalType": "address",
          "name": "newOwner",
          "type": "address"
        }
      ],
      "name": "OwnershipTransferred",
      "type": "event"
    },
    {
      "stateMutability": "payable",
      "type": "fallback"
    },
    {
      "inputs": [],
      "name": "ADDRESSES_PROVIDER",
      "outputs": [
        {
          "internalType": "contract ILendingPoolAddressesProviderV2",
          "name": "",
          "type": "address"
        }
      ],
      "stateMutability": "view",
      "type": "function"
    },
    {
      "inputs": [],
      "name": "LENDING_POOL",
      "outputs": [
        {
          "internalType": "contract ILendingPoolV2",
          "name": "",
          "type": "address"
        }
      ],
      "stateMutability": "view",
      "type": "function"
    },
    {
      "inputs": [],
      "name": "_APPROVE_PROXY_",
      "outputs": [
        {
          "internalType": "address",
          "name": "",
          "type": "address"
        }
      ],
      "stateMutability": "view",
      "type": "function"
    },
    {
      "inputs": [
        {
          "internalType": "address[]",
          "name": "assets",
          "type": "address[]"
        },
        {
          "internalType": "uint256[]",
          "name": "amounts",
          "type": "uint256[]"
        },
        {
          "internalType": "uint256[]",
          "name": "premiums",
          "type": "uint256[]"
        },
        {
          "internalType": "address",
          "name": "initiator",
          "type": "address"
        },
        {
          "internalType": "bytes",
          "name": "params",
          "type": "bytes"
        }
      ],
      "name": "executeOperation",
      "outputs": [
        {
          "internalType": "bool",
          "name": "",
          "type": "bool"
        }
      ],
      "stateMutability": "nonpayable",
      "type": "function"
    },
    {
      "inputs": [
        {
          "internalType": "address[]",
          "name": "assets",
          "type": "address[]"
        },
        {
          "internalType": "uint256[]",
          "name": "amounts",
          "type": "uint256[]"
        }
      ],
      "name": "flashloan",
      "outputs": [],
      "stateMutability": "nonpayable",
      "type": "function"
    },
    {
      "inputs": [
        {
          "internalType": "address",
          "name": "fromToken",
          "type": "address"
        },
        {
          "internalType": "uint256",
          "name": "amountIn",
          "type": "uint256"
        },
        {
          "internalType": "address",
          "name": "toToken",
          "type": "address"
        },
        {
          "components": [
            {
              "internalType": "address",
              "name": "fromToken",
              "type": "address"
            },
            {
              "internalType": "uint256",
              "name": "amountIn",
              "type": "uint256"
            },
            {
              "internalType": "address",
              "name": "toToken",
              "type": "address"
            },
            {
              "internalType": "address",
              "name": "to",
              "type": "address"
            },
            {
              "internalType": "uint256[]",
              "name": "weights",
              "type": "uint256[]"
            },
            {
              "components": [
                {
                  "internalType": "address",
                  "name": "fromToken",
                  "type": "address"
                },
                {
                  "internalType": "uint256",
                  "name": "amountIn",
                  "type": "uint256"
                },
                {
                  "internalType": "address",
                  "name": "toToken",
                  "type": "address"
                },
                {
                  "internalType": "address",
                  "name": "to",
                  "type": "address"
                },
                {
                  "internalType": "uint256[]",
                  "name": "weights",
                  "type": "uint256[]"
                },
                {
                  "internalType": "address[]",
                  "name": "adapters",
                  "type": "address[]"
                },
                {
                  "internalType": "address[]",
                  "name": "pools",
                  "type": "address[]"
                }
              ],
              "internalType": "struct RouteProxy.WeightPathInfo[][]",
              "name": "weightPathInfos",
              "type": "tuple[][]"
            }
          ],
          "internalType": "struct RouteProxy.LinearWeightPathInfo",
          "name": "linearWeightPathInfo",
          "type": "tuple"
        }
      ],
      "name": "linearSplitMultiHopMultiSwap",
      "outputs": [
        {
          "internalType": "uint256",
          "name": "output",
          "type": "uint256"
        }
      ],
      "stateMutability": "nonpayable",
      "type": "function"
    },
    {
      "inputs": [
        {
          "internalType": "address",
          "name": "fromToken",
          "type": "address"
        },
        {
          "internalType": "uint256",
          "name": "amountIn",
          "type": "uint256"
        },
        {
          "internalType": "address",
          "name": "toToken",
          "type": "address"
        },
        {
          "components": [
            {
              "internalType": "address",
              "name": "fromToken",
              "type": "address"
            },
            {
              "internalType": "uint256",
              "name": "amountIn",
              "type": "uint256"
            },
            {
              "internalType": "address",
              "name": "toToken",
              "type": "address"
            },
            {
              "internalType": "address",
              "name": "to",
              "type": "address"
            },
            {
              "internalType": "uint256[]",
              "name": "weights",
              "type": "uint256[]"
            },
            {
              "internalType": "address[]",
              "name": "adapters",
              "type": "address[]"
            },
            {
              "internalType": "address[]",
              "name": "pools",
              "type": "address[]"
            }
          ],
          "internalType": "struct RouteProxy.WeightPathInfo[]",
          "name": "weightPathInfos",
          "type": "tuple[]"
        }
      ],
      "name": "multiHopMultiSwap",
      "outputs": [
        {
          "internalType": "uint256[]",
          "name": "outputs",
          "type": "uint256[]"
        }
      ],
      "stateMutability": "nonpayable",
      "type": "function"
    },
    {
      "inputs": [
        {
          "internalType": "address",
          "name": "fromToken",
          "type": "address"
        },
        {
          "internalType": "uint256",
          "name": "amountIn",
          "type": "uint256"
        },
        {
          "internalType": "address",
          "name": "toToken",
          "type": "address"
        },
        {
          "components": [
            {
              "internalType": "address",
              "name": "fromToken",
              "type": "address"
            },
            {
              "internalType": "uint256",
              "name": "amountIn",
              "type": "uint256"
            },
            {
              "internalType": "address",
              "name": "toToken",
              "type": "address"
            },
            {
              "internalType": "address",
              "name": "to",
              "type": "address"
            },
            {
              "internalType": "address",
              "name": "adapter",
              "type": "address"
            },
            {
              "internalType": "address",
              "name": "pool",
              "type": "address"
            }
          ],
          "internalType": "struct RouteProxy.PathInfo[]",
          "name": "pathInfos",
          "type": "tuple[]"
        }
      ],
      "name": "multiHopSingleSwap",
      "outputs": [
        {
          "internalType": "uint256[]",
          "name": "outputs",
          "type": "uint256[]"
        }
      ],
      "stateMutability": "nonpayable",
      "type": "function"
    },
    {
      "inputs": [],
      "name": "owner",
      "outputs": [
        {
          "internalType": "address",
          "name": "",
          "type": "address"
        }
      ],
      "stateMutability": "view",
      "type": "function"
    },
    {
      "inputs": [],
      "name": "renounceOwnership",
      "outputs": [],
      "stateMutability": "nonpayable",
      "type": "function"
    },
    {
      "inputs": [
        {
          "internalType": "address",
          "name": "fromToken",
          "type": "address"
        },
        {
          "internalType": "uint256",
          "name": "amountIn",
          "type": "uint256"
        },
        {
          "internalType": "address",
          "name": "toToken",
          "type": "address"
        },
        {
          "components": [
            {
              "internalType": "address",
              "name": "fromToken",
              "type": "address"
            },
            {
              "internalType": "uint256",
              "name": "amountIn",
              "type": "uint256"
            },
            {
              "internalType": "address",
              "name": "toToken",
              "type": "address"
            },
            {
              "internalType": "address",
              "name": "to",
              "type": "address"
            },
            {
              "internalType": "uint256[]",
              "name": "weights",
              "type": "uint256[]"
            },
            {
              "components": [
                {
                  "internalType": "address",
                  "name": "fromToken",
                  "type": "address"
                },
                {
                  "internalType": "uint256",
                  "name": "amountIn",
                  "type": "uint256"
                },
                {
                  "internalType": "address",
                  "name": "toToken",
                  "type": "address"
                },
                {
                  "internalType": "address",
                  "name": "to",
                  "type": "address"
                },
                {
                  "internalType": "uint256[]",
                  "name": "weights",
                  "type": "uint256[]"
                },
                {
                  "internalType": "address[]",
                  "name": "adapters",
                  "type": "address[]"
                },
                {
                  "internalType": "address[]",
                  "name": "pools",
                  "type": "address[]"
                }
              ],
              "internalType": "struct RouteProxy.WeightPathInfo[][]",
              "name": "weightPathInfos",
              "type": "tuple[][]"
            }
          ],
          "internalType": "struct RouteProxy.LinearWeightPathInfo",
          "name": "linearWeightPathInfo",
          "type": "tuple"
        },
        {
          "components": [
            {
              "internalType": "address",
              "name": "asset",
              "type": "address"
            },
            {
              "internalType": "uint256",
              "name": "amountIn",
              "type": "uint256"
            },
            {
              "components": [
                {
                  "internalType": "address",
                  "name": "fromToken",
                  "type": "address"
                },
                {
                  "internalType": "uint256",
                  "name": "amountIn",
                  "type": "uint256"
                },
                {
                  "internalType": "address",
                  "name": "toToken",
                  "type": "address"
                },
                {
                  "internalType": "address",
                  "name": "to",
                  "type": "address"
                },
                {
                  "internalType": "address",
                  "name": "adapter",
                  "type": "address"
                },
                {
                  "internalType": "address",
                  "name": "pool",
                  "type": "address"
                }
              ],
              "internalType": "struct RouteProxy.PathInfo[]",
              "name": "pathInfos",
              "type": "tuple[]"
            }
          ],
          "internalType": "struct RouteProxy.FlashLoanDes[]",
          "name": "flashDes",
          "type": "tuple[]"
        },
        {
          "internalType": "uint256",
          "name": "minReturnAmount",
          "type": "uint256"
        },
        {
          "internalType": "uint256",
          "name": "deadLine",
          "type": "uint256"
        }
      ],
      "name": "shieldSwap",
      "outputs": [
        {
          "internalType": "uint256",
          "name": "output",
          "type": "uint256"
        }
      ],
      "stateMutability": "payable",
      "type": "function"
    },
    {
      "inputs": [
        {
          "internalType": "address",
          "name": "fromToken",
          "type": "address"
        },
        {
          "internalType": "uint256",
          "name": "amountIn",
          "type": "uint256"
        },
        {
          "internalType": "address",
          "name": "toToken",
          "type": "address"
        },
        {
          "components": [
            {
              "internalType": "address",
              "name": "fromToken",
              "type": "address"
            },
            {
              "internalType": "uint256",
              "name": "amountIn",
              "type": "uint256"
            },
            {
              "internalType": "address",
              "name": "toToken",
              "type": "address"
            },
            {
              "internalType": "address",
              "name": "to",
              "type": "address"
            },
            {
              "internalType": "uint256[]",
              "name": "weights",
              "type": "uint256[]"
            },
            {
              "internalType": "address[]",
              "name": "adapters",
              "type": "address[]"
            },
            {
              "internalType": "address[]",
              "name": "pools",
              "type": "address[]"
            }
          ],
          "internalType": "struct RouteProxy.WeightPathInfo",
          "name": "weightPathInfo",
          "type": "tuple"
        }
      ],
      "name": "singleHopMultiSwap",
      "outputs": [
        {
          "internalType": "uint256",
          "name": "output",
          "type": "uint256"
        }
      ],
      "stateMutability": "nonpayable",
      "type": "function"
    },
    {
      "inputs": [
        {
          "internalType": "address",
          "name": "newOwner",
          "type": "address"
        }
      ],
      "name": "transferOwnership",
      "outputs": [],
      "stateMutability": "nonpayable",
      "type": "function"
    },
    {
      "inputs": [
        {
          "internalType": "address",
          "name": "_assetAddress",
          "type": "address"
        }
      ],
      "name": "withdraw",
      "outputs": [],
      "stateMutability": "nonpayable",
      "type": "function"
    },
    {
      "stateMutability": "payable",
      "type": "receive"
    }
  ],
  "transactionHash": "0x5203103b03da58dd1567c790e6c6bf8015605947cfb4f8b17b5035c994d4e2b3",
  "args": [
    "0xB4E63E5a2d3d65c9c4f592Ef6d97037f4d6cd133",
    "0x178113104fEcbcD7fF8669a0150721e231F0FD4B"
  ],
  "numDeployments": 1,
  "solcInputHash": "36479a67904949b8fba17c4401077ab8",
  "bytecode": "0x60e06040523480156200001157600080fd5b5060405162004c4038038062004c4083398101604081905262000034916200014c565b80806001600160a01b03166080816001600160a01b031681525050806001600160a01b0316630261bf8b6040518163ffffffff1660e01b8152600401602060405180830381865afa1580156200008e573d6000803e3d6000fd5b505050506040513d601f19601f82011682018060405250810190620000b4919062000184565b6001600160a01b031660a05250620000cc33620000df565b506001600160a01b031660c052620001a9565b600080546001600160a01b038381166001600160a01b0319831681178455604051919092169283917f8be0079c531659141344cd1fd0a4f28419497f9722a3daafe3b4186f6b6457e09190a35050565b80516001600160a01b03811681146200014757600080fd5b919050565b600080604083850312156200016057600080fd5b6200016b836200012f565b91506200017b602084016200012f565b90509250929050565b6000602082840312156200019757600080fd5b620001a2826200012f565b9392505050565b60805160a05160c051614a4c620001f4600039600081816101ef01526113e10152600081816102a60152818161096b0152818161112001526130140152600060f00152614a4c6000f3fe6080604052600436106100d55760003560e01c8063715018a611610079578063a933963c11610056578063a933963c14610274578063b4dcfc7714610294578063f2186342146102c8578063f2fde38b146102e857005b8063715018a6146102115780638da5cb5b14610226578063920f5c841461024457005b80634245a449116100b25780634245a4491461017c57806351cff8d91461019d5780635bcce87b146101bd57806363b40309146101dd57005b80630542975c146100de578063307ed0661461012f5780634195e2d31461015c57005b366100dc57005b005b3480156100ea57600080fd5b506101127f000000000000000000000000000000000000000000000000000000000000000081565b6040516001600160a01b0390911681526020015b60405180910390f35b34801561013b57600080fd5b5061014f61014a366004613c29565b610308565b6040516101269190613cd7565b34801561016857600080fd5b5061014f610177366004613cea565b610448565b61018f61018a3660046142b0565b6105a1565b604051908152602001610126565b3480156101a957600080fd5b506100dc6101b836600461444c565b610c92565b3480156101c957600080fd5b5061018f6101d8366004614469565b610da5565b3480156101e957600080fd5b506101127f000000000000000000000000000000000000000000000000000000000000000081565b34801561021d57600080fd5b506100dc610e65565b34801561023257600080fd5b506000546001600160a01b0316610112565b34801561025057600080fd5b5061026461025f3660046144da565b610e79565b6040519015158152602001610126565b34801561028057600080fd5b506100dc61028f3660046145df565b6111c5565b3480156102a057600080fd5b506101127f000000000000000000000000000000000000000000000000000000000000000081565b3480156102d457600080fd5b5061018f6102e3366004614643565b6111eb565b3480156102f457600080fd5b506100dc61030336600461444c565b6112a2565b6060610315338787611332565b856001600160a01b031683836000818110610332576103326146a9565b905060200281019061034491906146bf565b61035290602081019061444c565b6001600160a01b031614801561038f57508483836000818110610377576103776146a9565b905060200281019061038991906146bf565b60200135145b80156103ea57506001600160a01b03841683836103ad6001826146f5565b8181106103bc576103bc6146a9565b90506020028101906103ce91906146bf565b6103df90606081019060400161444c565b6001600160a01b0316145b61042c5760405162461bcd60e51b815260206004820152600e60248201526d1b9bdd081cd85b59481a5b9c1d5d60921b60448201526064015b60405180910390fd5b61043e610439838561470c565b611442565b9695505050505050565b6060610455338787611332565b856001600160a01b031683836000818110610472576104726146a9565b61048892602060c090920201908101915061444c565b6001600160a01b03161480156104b9575084838360008181106104ad576104ad6146a9565b905060c0020160200135145b801561050957506001600160a01b03841683836104d76001826146f5565b8181106104e6576104e66146a9565b905060c0020160400160208101906104fe919061444c565b6001600160a01b0316145b6105465760405162461bcd60e51b815260206004820152600e60248201526d1b9bdd081cd85b59481a5b9c1d5d60921b6044820152606401610423565b61043e8383808060200260200160405190810160405280939291908181526020016000905b828210156105975761058860c08302860136819003810190614719565b8152602001906001019061056b565b50505050506116ab565b600081428110156105f45760405162461bcd60e51b815260206004820152601360248201527f526f75746550726f78793a2045585049524544000000000000000000000000006044820152606401610423565b6000841161066a5760405162461bcd60e51b815260206004820152602160248201527f6d696e52657475726e2073686f756c64206265206c6172676572207468616e2060448201527f30000000000000000000000000000000000000000000000000000000000000006064820152608401610423565b610675338a8a611332565b87866020015114801561069d5750886001600160a01b031686600001516001600160a01b0316145b80156106be5750866001600160a01b031686604001516001600160a01b0316145b6106fb5760405162461bcd60e51b815260206004820152600e60248201526d1b9bdd081cd85b59481a5b9c1d5d60921b6044820152606401610423565b61070486611f94565b915060005b8551811015610bb857858181518110610724576107246146a9565b602002602001015160200151868281518110610742576107426146a9565b602002602001015160400151600081518110610760576107606146a9565b602002602001015160200151146107b95760405162461bcd60e51b815260206004820152601c60248201527f666c6173686c6f616e20616d6f756e74496e206e6f74206d61746368000000006044820152606401610423565b8581815181106107cb576107cb6146a9565b6020026020010151600001516001600160a01b03168682815181106107f2576107f26146a9565b602002602001015160400151600081518110610810576108106146a9565b6020026020010151600001516001600160a01b03161480156108c4575085818151811061083f5761083f6146a9565b602002602001015160400151600187838151811061085f5761085f6146a9565b6020026020010151604001515161087691906146f5565b81518110610886576108866146a9565b6020026020010151604001516001600160a01b03168682815181106108ad576108ad6146a9565b6020026020010151600001516001600160a01b0316145b6109365760405162461bcd60e51b815260206004820152602260248201527f666c6173686c6f616e2066726f6d20746f20617373657473206e6f74206d617460448201527f63680000000000000000000000000000000000000000000000000000000000006064820152608401610423565b600061095e87838151811061094d5761094d6146a9565b6020026020010151604001516122dc565b9050610a2b612710610a257f00000000000000000000000000000000000000000000000000000000000000006001600160a01b031663074b2e436040518163ffffffff1660e01b81526004016020604051808303816000875af11580156109c9573d6000803e3d6000fd5b505050506040513d601f19601f820116820180604052508101906109ed9190614735565b6109f99061271061474e565b8a8681518110610a0b57610a0b6146a9565b602002602001015160200151612aa690919063ffffffff16565b90612b27565b8160018351610a3a91906146f5565b81518110610a4a57610a4a6146a9565b60200260200101511115610ba557610ad9878381518110610a6d57610a6d6146a9565b602002602001015160000151888481518110610a8b57610a8b6146a9565b602002602001015160200151898581518110610aa957610aa96146a9565b602002602001015160400151604051602001610ac59190614766565b604051602081830303815290604052612b82565b868281518110610aeb57610aeb6146a9565b6020026020010151600001516001600160a01b0316896001600160a01b031603610b5557610b4830888481518110610b2557610b256146a9565b6020026020010151600001516001600160a01b0316612c2790919063ffffffff16565b610b52908561474e565b93505b610ba533610b6f308a8681518110610b2557610b256146a9565b898581518110610b8157610b816146a9565b6020026020010151600001516001600160a01b0316612ccf9092919063ffffffff16565b5080610bb0816147f0565b915050610709565b5083821015610c2f5760405162461bcd60e51b815260206004820152602b60248201527f444f444f526f75746550726f78793a2052657475726e20616d6f756e7420697360448201527f206e6f7420656e6f7567680000000000000000000000000000000000000000006064820152608401610423565b604080516001600160a01b038b81168252891660208201523381830152606081018a90526080810184905290517f92ceb067a9883c85aba061e46b9edf505a0d6e81927c4b966ebed543a52217879181900360a00190a150979650505050505050565b610c9a612db6565b60006001600160a01b038216610ce3575060405130803191339083156108fc029084906000818181858888f19350505050158015610cdc573d6000803e3d6000fd5b5050610d61565b6040516370a0823160e01b81523060048201526001600160a01b038316906370a0823190602401602060405180830381865afa158015610d27573d6000803e3d6000fd5b505050506040513d601f19601f82011682018060405250810190610d4b9190614735565b9050610d616001600160a01b0383163383612e10565b6040518181526001600160a01b0383169033907f9207361cc2a04b9c7a06691df1eb87c6a63957ae88bf01d0d18c81e3d12720999060200160405180910390a35050565b6000610db2338686611332565b838260200135148015610de257506001600160a01b038516610dd7602084018461444c565b6001600160a01b0316145b8015610e0e57506001600160a01b038316610e03606084016040850161444c565b6001600160a01b0316145b610e4b5760405162461bcd60e51b815260206004820152600e60248201526d1b9bdd081cd85b59481a5b9c1d5d60921b6044820152606401610423565b610e5c610e5783614809565b611f94565b95945050505050565b610e6d612db6565b610e776000612e90565b565b6000805b89811015610f655773b685400156cf3cbe8725958deaa61436727a30c38b8b83818110610eac57610eac6146a9565b9050602002016020810190610ec1919061444c565b6001600160a01b031603610f535773b685400156cf3cbe8725958deaa61436727a30c3632e1a7d4d8a8a84818110610efb57610efb6146a9565b905060200201356040518263ffffffff1660e01b8152600401610f2091815260200190565b600060405180830381600087803b158015610f3a57600080fd5b505af1158015610f4e573d6000803e3d6000fd5b505050505b80610f5d816147f0565b915050610e7d565b506000610f7483850185614815565b9050308160018351610f8691906146f5565b81518110610f9657610f966146a9565b6020026020010151606001906001600160a01b031690816001600160a01b031681525050610fc3816116ab565b5060005b8a8110156111b3576000611014898984818110610fe657610fe66146a9565b905060200201358c8c85818110610fff57610fff6146a9565b90506020020135612ef890919063ffffffff16565b905073b685400156cf3cbe8725958deaa61436727a30c38d8d8481811061103d5761103d6146a9565b9050602002016020810190611052919061444c565b6001600160a01b0316036110c95773b685400156cf3cbe8725958deaa61436727a30c36001600160a01b031663d0e30db0826040518263ffffffff1660e01b81526004016000604051808303818588803b1580156110af57600080fd5b505af11580156110c3573d6000803e3d6000fd5b50505050505b8c8c838181106110db576110db6146a9565b90506020020160208101906110f0919061444c565b6040517f095ea7b30000000000000000000000000000000000000000000000000000000081526001600160a01b037f00000000000000000000000000000000000000000000000000000000000000008116600483015260248201849052919091169063095ea7b3906044016020604051808303816000875af115801561117a573d6000803e3d6000fd5b505050506040513d601f19601f8201168201806040525081019061119e9190614852565b505080806111ab906147f0565b915050610fc7565b5060019b9a5050505050505050505050565b6111cd612db6565b6111e7828260405180602001604052806000815250612f57565b5050565b60006111f8338686611332565b6001600160a01b03851661120f602084018461444c565b6001600160a01b03161480156112285750838260200135145b801561125457506001600160a01b038316611249606084016040850161444c565b6001600160a01b0316145b6112915760405162461bcd60e51b815260206004820152600e60248201526d1b9bdd081cd85b59481a5b9c1d5d60921b6044820152606401610423565b610e5c61129d83614874565b613090565b6112aa612db6565b6001600160a01b0381166113265760405162461bcd60e51b815260206004820152602660248201527f4f776e61626c653a206e6577206f776e657220697320746865207a65726f206160448201527f64647265737300000000000000000000000000000000000000000000000000006064820152608401610423565b61132f81612e90565b50565b6001600160a01b0383166113945780341461138f5760405162461bcd60e51b815260206004820152600f60248201527f4554485f56414c55455f57524f4e4700000000000000000000000000000000006044820152606401610423565b505050565b6040517f0a5ea4660000000000000000000000000000000000000000000000000000000081526001600160a01b0383811660048301528481166024830152306044830152606482018390527f00000000000000000000000000000000000000000000000000000000000000001690630a5ea46690608401600060405180830381600087803b15801561142557600080fd5b505af1158015611439573d6000803e3d6000fd5b50505050505050565b606081516001611452919061474e565b67ffffffffffffffff81111561146a5761146a613d8c565b604051908082528060200260200182016040528015611493578160200160208202803683370190505b509050816000815181106114a9576114a96146a9565b602002602001015160200151816000815181106114c8576114c86146a9565b602090810291909101015260015b8251811015611668578281815181106114f1576114f16146a9565b6020026020010151600001516001600160a01b03168360018361151491906146f5565b81518110611524576115246146a9565b6020026020010151604001516001600160a01b0316146115865760405162461bcd60e51b815260206004820152601760248201527f4e6f742076616c6964206d756c7469686f7020506174680000000000000000006044820152606401610423565b6001835161159491906146f5565b81146115d257308382815181106115ad576115ad6146a9565b6020026020010151606001906001600160a01b031690816001600160a01b0316815250505b6115fe836115e16001846146f5565b815181106115f1576115f16146a9565b6020026020010151613090565b828281518110611610576116106146a9565b60200260200101818152505081818151811061162e5761162e6146a9565b6020026020010151838281518110611648576116486146a9565b602090810291909101810151015280611660816147f0565b9150506114d6565b5061167b82600184516115e191906146f5565b816001835161168a91906146f5565b8151811061169a5761169a6146a9565b602002602001018181525050919050565b80516060906116b9836122dc565b915060008060015b83811015611b5d576000866116d76001846146f5565b815181106116e7576116e76146a9565b6020026020010151600001516001600160a01b03160361178157611781866117106001846146f5565b81518110611720576117206146a9565b6020026020010151608001518760018461173a91906146f5565b8151811061174a5761174a6146a9565b602002602001015160a001518760018561176491906146f5565b81518110611774576117746146a9565b60200260200101516134ba565b60008661178f6001846146f5565b8151811061179f5761179f6146a9565b6020026020010151600001516001600160a01b0316146117e657856117c56001836146f5565b815181106117d5576117d56146a9565b602002602001015160000151611840565b611840866117f56001846146f5565b81518110611805576118056146a9565b6020026020010151608001518760018461181f91906146f5565b8151811061182f5761182f6146a9565b602002602001015160a0015161364c565b92506000866118506001846146f5565b81518110611860576118606146a9565b6020026020010151604001516001600160a01b0316146118a757856118866001836146f5565b81518110611896576118966146a9565b6020026020010151604001516118b6565b6118b6866117f56001846146f5565b91506001600160a01b03831663a9059cbb876118d36001856146f5565b815181106118e3576118e36146a9565b602002602001015160a00151876001856118fd91906146f5565b8151811061190d5761190d6146a9565b60200260200101516040518363ffffffff1660e01b81526004016119469291906001600160a01b03929092168252602082015260400190565b6020604051808303816000875af1158015611965573d6000803e3d6000fd5b505050506040513d601f19601f820116820180604052508101906119899190614852565b50856119966001836146f5565b815181106119a6576119a66146a9565b6020026020010151608001516001600160a01b031663cba68ed884876001856119cf91906146f5565b815181106119df576119df6146a9565b6020026020010151858a6001876119f691906146f5565b81518110611a0657611a066146a9565b602090810291909101015160a001516040516001600160e01b031960e087901b1681526001600160a01b0394851660048201526024810193909352908316604483015291909116606482015230608482015260a4016020604051808303816000875af1158015611a7a573d6000803e3d6000fd5b505050506040513d601f19601f82011682018060405250810190611a9e9190614735565b50600086611aad6001846146f5565b81518110611abd57611abd6146a9565b6020026020010151604001516001600160a01b031603611b4b57611b4b86611ae66001846146f5565b81518110611af657611af66146a9565b60200260200101516080015187600184611b1091906146f5565b81518110611b2057611b206146a9565b602002602001015160a00151878481518110611b3e57611b3e6146a9565b602002602001015161372c565b80611b55816147f0565b9150506116c1565b50600085611b6c6001866146f5565b81518110611b7c57611b7c6146a9565b6020026020010151600001516001600160a01b031614611bc35784611ba26001856146f5565b81518110611bb257611bb26146a9565b602002602001015160000151611bfc565b611bfc85611bd26001866146f5565b81518110611be257611be26146a9565b6020026020010151608001518660018661181f91906146f5565b9150600085611c0c6001866146f5565b81518110611c1c57611c1c6146a9565b6020026020010151604001516001600160a01b031614611c635784611c426001856146f5565b81518110611c5257611c526146a9565b602002602001015160400151611c72565b611c7285611bd26001866146f5565b9050600085611c826001866146f5565b81518110611c9257611c926146a9565b6020026020010151600001516001600160a01b031603611d1357611d1385611cbb6001866146f5565b81518110611ccb57611ccb6146a9565b60200260200101516080015186600186611ce591906146f5565b81518110611cf557611cf56146a9565b602002602001015160a00151868681518110611774576117746146a9565b6001600160a01b03821663a9059cbb86611d2e6001876146f5565b81518110611d3e57611d3e6146a9565b602002602001015160a0015186600187611d5891906146f5565b81518110611d6857611d686146a9565b60200260200101516040518363ffffffff1660e01b8152600401611da19291906001600160a01b03929092168252602082015260400190565b6020604051808303816000875af1158015611dc0573d6000803e3d6000fd5b505050506040513d601f19601f82011682018060405250810190611de49190614852565b5084611df16001856146f5565b81518110611e0157611e016146a9565b6020026020010151608001516001600160a01b031663cba68ed88386600187611e2a91906146f5565b81518110611e3a57611e3a6146a9565b60200260200101518489600189611e5191906146f5565b81518110611e6157611e616146a9565b602002602001015160a001518a60018a611e7b91906146f5565b81518110611e8b57611e8b6146a9565b6020908102919091010151606001516040516001600160e01b031960e088901b1681526001600160a01b039586166004820152602481019490945291841660448401528316606483015291909116608482015260a4016020604051808303816000875af1158015611f00573d6000803e3d6000fd5b505050506040513d601f19601f82011682018060405250810190611f249190614735565b50611f8c85611f346001866146f5565b81518110611f4457611f446146a9565b60200260200101516080015186600186611f5e91906146f5565b81518110611f6e57611f6e6146a9565b602002602001015160400151868681518110611b3e57611b3e6146a9565b505050919050565b60008160a001515182608001515114611fef5760405162461bcd60e51b815260206004820152601460248201527f496e76616c696420696e707574206c656e6774680000000000000000000000006044820152606401610423565b608082015151600090815b8181101561203f5784608001518181518110612018576120186146a9565b60200260200101518361202b919061474e565b925080612037816147f0565b915050611ffa565b50602084015160005b828110156122d35760008660a001518281518110612068576120686146a9565b602002602001015151905086604001516001600160a01b03168760a001518381518110612097576120976146a9565b60200260200101516001836120ac91906146f5565b815181106120bc576120bc6146a9565b6020026020010151604001516001600160a01b03161461211e5760405162461bcd60e51b815260206004820152601860248201527f4e6f742076616c6964206c696e65617220746f546f6b656e00000000000000006044820152606401610423565b86600001516001600160a01b03168760a001518381518110612142576121426146a9565b602002602001015160008151811061215c5761215c6146a9565b6020026020010151600001516001600160a01b0316146121be5760405162461bcd60e51b815260206004820152601a60248201527f4e6f742076616c6964206c696e6561722066726f6d546f6b656e0000000000006044820152606401610423565b60006121cb6001866146f5565b831461220e5761220986610a258a6080015186815181106121ee576121ee6146a9565b60200260200101518b60200151612aa690919063ffffffff16565b612210565b835b905061221c84826138dd565b9350808860a001518481518110612235576122356146a9565b602002602001015160008151811061224f5761224f6146a9565b6020026020010151602001818152505060006122878960a00151858151811061227a5761227a6146a9565b6020026020010151611442565b9050806001825161229891906146f5565b815181106122a8576122a86146a9565b6020026020010151886122bb919061474e565b975050505080806122cb906147f0565b915050612048565b50505050919050565b80516060906122ec81600161474e565b67ffffffffffffffff81111561230457612304613d8c565b60405190808252806020026020018201604052801561232d578160200160208202803683370190505b50915082600081518110612343576123436146a9565b60200260200101516020015182600081518110612362576123626146a9565b6020908102919091010152600060015b8281101561277b5784818151811061238c5761238c6146a9565b6020026020010151600001516001600160a01b0316856001836123af91906146f5565b815181106123bf576123bf6146a9565b6020026020010151604001516001600160a01b0316146124475760405162461bcd60e51b815260206004820152602160248201527f4e6f742076616c6964206d756c7469686f7053696e676c65537761702050617460448201527f68000000000000000000000000000000000000000000000000000000000000006064820152608401610423565b846124536001836146f5565b81518110612463576124636146a9565b6020026020010151604001516001600160a01b03168560018361248691906146f5565b81518110612496576124966146a9565b6020026020010151600001516001600160a01b0316036124f85760405162461bcd60e51b815260206004820152601460248201527f66726f6d20746f20617265207468652073616d650000000000000000000000006044820152606401610423565b836125046001836146f5565b81518110612514576125146146a9565b602002602001015191508460018261252c91906146f5565b8151811061253c5761253c6146a9565b6020026020010151608001516001600160a01b0316631ad0cdb560006001600160a01b03168760018561256f91906146f5565b8151811061257f5761257f6146a9565b6020026020010151600001516001600160a01b0316146125c657866125a56001856146f5565b815181106125b5576125b56146a9565b6020026020010151600001516125ff565b6125ff876125d56001866146f5565b815181106125e5576125e56146a9565b6020026020010151608001518860018661181f91906146f5565b8460008961260e6001886146f5565b8151811061261e5761261e6146a9565b6020026020010151604001516001600160a01b03161461266557886126446001876146f5565b81518110612654576126546146a9565b60200260200101516040015161269e565b61269e896126746001886146f5565b81518110612684576126846146a9565b6020026020010151608001518a60018861181f91906146f5565b896126aa6001886146f5565b815181106126ba576126ba6146a9565b602002602001015160a001516040518563ffffffff1660e01b815260040161270b94939291906001600160a01b03948516815260208101939093529083166040830152909116606082015260800190565b602060405180830381865afa158015612728573d6000803e3d6000fd5b505050506040513d601f19601f8201168201806040525081019061274c9190614735565b84828151811061275e5761275e6146a9565b602090810291909101015280612773816147f0565b915050612372565b50836127886001846146f5565b81518110612798576127986146a9565b6020026020010151604001516001600160a01b0316846001846127bb91906146f5565b815181106127cb576127cb6146a9565b6020026020010151600001516001600160a01b03160361282d5760405162461bcd60e51b815260206004820152601460248201527f66726f6d20746f20617265207468652073616d650000000000000000000000006044820152606401610423565b826128396001846146f5565b81518110612849576128496146a9565b602002602001015190508360018361286191906146f5565b81518110612871576128716146a9565b6020026020010151608001516001600160a01b0316631ad0cdb560006001600160a01b0316866001866128a491906146f5565b815181106128b4576128b46146a9565b6020026020010151600001516001600160a01b0316146128fb57856128da6001866146f5565b815181106128ea576128ea6146a9565b602002602001015160000151612934565b6129348661290a6001876146f5565b8151811061291a5761291a6146a9565b6020026020010151608001518760018761181f91906146f5565b836000886129436001896146f5565b81518110612953576129536146a9565b6020026020010151604001516001600160a01b03161461299a57876129796001886146f5565b81518110612989576129896146a9565b6020026020010151604001516129d3565b6129d3886129a96001896146f5565b815181106129b9576129b96146a9565b6020026020010151608001518960018961181f91906146f5565b886129df6001896146f5565b815181106129ef576129ef6146a9565b602002602001015160a001516040518563ffffffff1660e01b8152600401612a4094939291906001600160a01b03948516815260208101939093529083166040830152909116606082015260800190565b602060405180830381865afa158015612a5d573d6000803e3d6000fd5b505050506040513d601f19601f82011682018060405250810190612a819190614735565b838381518110612a9357612a936146a9565b6020026020010181815250505050919050565b600082600003612ab857506000612b21565b6000612ac48385614880565b905082612ad1858361489f565b14612b1e5760405162461bcd60e51b815260206004820152600960248201527f4d554c5f4552524f5200000000000000000000000000000000000000000000006044820152606401610423565b90505b92915050565b6000808211612b785760405162461bcd60e51b815260206004820152600e60248201527f4449564944494e475f4552524f520000000000000000000000000000000000006044820152606401610423565b612b1e828461489f565b604080516001808252818301909252600091602080830190803683370190505090508381600081518110612bb857612bb86146a9565b6001600160a01b0392909216602092830291909101909101526040805160018082528183019092526000918160200160208202803683370190505090508381600081518110612c0957612c096146a9565b602002602001018181525050612c20828285612f57565b5050505050565b600073eeeeeeeeeeeeeeeeeeeeeeeeeeeeeeeeeeeeeeee6001600160a01b03841603612c5e57506001600160a01b03811631612b21565b6040516370a0823160e01b81526001600160a01b0383811660048301528416906370a0823190602401602060405180830381865afa158015612ca4573d6000803e3d6000fd5b505050506040513d601f19601f82011682018060405250810190612cc89190614735565b9050612b21565b801561138f5773eeeeeeeeeeeeeeeeeeeeeeeeeeeeeeeeeeeeeeee6001600160a01b03841603612da2576000826001600160a01b03168260405160006040518083038185875af1925050503d8060008114612d46576040519150601f19603f3d011682016040523d82523d6000602084013e612d4b565b606091505b5050905080612d9c5760405162461bcd60e51b815260206004820152601660248201527f4661696c65645f546f5f5472616e736665725f455448000000000000000000006044820152606401610423565b50505050565b61138f6001600160a01b0384168383612e10565b6000546001600160a01b03163314610e775760405162461bcd60e51b815260206004820181905260248201527f4f776e61626c653a2063616c6c6572206973206e6f7420746865206f776e65726044820152606401610423565b604080516001600160a01b038416602482015260448082018490528251808303909101815260649091019091526020810180517bffffffffffffffffffffffffffffffffffffffffffffffffffffffff167fa9059cbb0000000000000000000000000000000000000000000000000000000017905261138f908490613939565b600080546001600160a01b038381167fffffffffffffffffffffffff0000000000000000000000000000000000000000831681178455604051919092169283917f8be0079c531659141344cd1fd0a4f28419497f9722a3daafe3b4186f6b6457e09190a35050565b600080612f05838561474e565b905083811015612b1e5760405162461bcd60e51b815260206004820152600960248201527f4144445f4552524f5200000000000000000000000000000000000000000000006044820152606401610423565b825130908190600090819067ffffffffffffffff811115612f7a57612f7a613d8c565b604051908082528060200260200182016040528015612fa3578160200160208202803683370190505b50905060005b8751811015612fe3576000828281518110612fc657612fc66146a9565b602090810291909101015280612fdb816147f0565b915050612fa9565b506040517fab9c4b5d0000000000000000000000000000000000000000000000000000000081526001600160a01b037f0000000000000000000000000000000000000000000000000000000000000000169063ab9c4b5d906130559087908b908b9087908a908d908b90600401614919565b600060405180830381600087803b15801561306f57600080fd5b505af1158015613083573d6000803e3d6000fd5b5050505050505050505050565b60008160a00151518260800151511480156130b457508160c0015151826080015151145b6131005760405162461bcd60e51b815260206004820152601460248201527f496e76616c696420696e707574206c656e6774680000000000000000000000006044820152606401610423565b608082015151600090815b818110156131505784608001518181518110613129576131296146a9565b60200260200101518361313c919061474e565b925080613148816147f0565b91505061310b565b506020840151600080805b848110156134af5760006131706001876146f5565b82146131b3576131ae87610a258b608001518581518110613193576131936146a9565b60200260200101518c60200151612aa690919063ffffffff16565b6131b5565b845b90506131c185826138dd565b89519095506001600160a01b0316613218576132188960a0015183815181106131ec576131ec6146a9565b60200260200101518a60c00151848151811061320a5761320a6146a9565b6020026020010151836134ba565b88516001600160a01b03161561322f578851613273565b6132738960a001518381518110613248576132486146a9565b60200260200101518a60c001518481518110613266576132666146a9565b602002602001015161364c565b9350836001600160a01b031663a9059cbb8a60c00151848151811061329a5761329a6146a9565b6020026020010151836040518363ffffffff1660e01b81526004016132d49291906001600160a01b03929092168252602082015260400190565b6020604051808303816000875af11580156132f3573d6000803e3d6000fd5b505050506040513d601f19601f820116820180604052508101906133179190614852565b5060408901516001600160a01b03161561333557886040015161334e565b61334e8960a001518381518110613248576132486146a9565b925060008960a001518381518110613368576133686146a9565b60200260200101516001600160a01b031663cba68ed88684878e60c001518881518110613397576133976146a9565b60200260200101518f606001516040518663ffffffff1660e01b81526004016133f19594939291906001600160a01b0395861681526020810194909452918416604084015283166060830152909116608082015260a00190565b6020604051808303816000875af1158015613410573d6000803e3d6000fd5b505050506040513d601f19601f820116820180604052508101906134349190614735565b60408b01519091506001600160a01b031661348e5761348e8a60a001518481518110613462576134626146a9565b60200260200101518b60c001518581518110613480576134806146a9565b60200260200101518361372c565b613498818a61474e565b9850505080806134a7906147f0565b91505061315b565b505050505050919050565b604051631cae07ed60e11b81526001600160a01b03838116600483015260009190851690633f293cc290829063395c0fda906024016020604051808303816000875af115801561350e573d6000803e3d6000fd5b505050506040513d601f19601f8201168201806040525081019061353291906149d4565b6040516001600160e01b031960e084901b1681526001600160a01b039091166004820152602401602060405180830381865afa158015613576573d6000803e3d6000fd5b505050506040513d601f19601f8201168201806040525081019061359a91906149d4565b90506001600160a01b0381166135f25760405162461bcd60e51b815260206004820152601c60248201527f4e6f2077726170706564206d61746963206578697374733a66726f6d000000006044820152606401610423565b806001600160a01b031663d0e30db0836040518263ffffffff1660e01b81526004016000604051808303818588803b15801561362d57600080fd5b505af1158015613641573d6000803e3d6000fd5b505050505050505050565b604051631cae07ed60e11b81526001600160a01b03828116600483015260009190841690637a5004d990829063395c0fda906024016020604051808303816000875af11580156136a0573d6000803e3d6000fd5b505050506040513d601f19601f820116820180604052508101906136c491906149d4565b6040516001600160e01b031960e084901b1681526001600160a01b039091166004820152602401602060405180830381865afa158015613708573d6000803e3d6000fd5b505050506040513d601f19601f82011682018060405250810190612b1e91906149d4565b604051631cae07ed60e11b81526001600160a01b03838116600483015260009190851690633f293cc290829063395c0fda906024016020604051808303816000875af1158015613780573d6000803e3d6000fd5b505050506040513d601f19601f820116820180604052508101906137a491906149d4565b6040516001600160e01b031960e084901b1681526001600160a01b039091166004820152602401602060405180830381865afa1580156137e8573d6000803e3d6000fd5b505050506040513d601f19601f8201168201806040525081019061380c91906149d4565b90506001600160a01b0381166138645760405162461bcd60e51b815260206004820152601a60248201527f4e6f2077726170706564206d61746963206578697374733a746f0000000000006044820152606401610423565b6040517f2e1a7d4d000000000000000000000000000000000000000000000000000000008152600481018390526001600160a01b03821690632e1a7d4d90602401600060405180830381600087803b1580156138bf57600080fd5b505af11580156138d3573d6000803e3d6000fd5b5050505050505050565b60008282111561392f5760405162461bcd60e51b815260206004820152600960248201527f5355425f4552524f5200000000000000000000000000000000000000000000006044820152606401610423565b612b1e82846146f5565b600061398e826040518060400160405280602081526020017f5361666545524332303a206c6f772d6c6576656c2063616c6c206661696c6564815250856001600160a01b0316613a1e9092919063ffffffff16565b80519091501561138f57808060200190518101906139ac9190614852565b61138f5760405162461bcd60e51b815260206004820152602a60248201527f5361666545524332303a204552433230206f7065726174696f6e20646964206e60448201527f6f742073756363656564000000000000000000000000000000000000000000006064820152608401610423565b6060613a2d8484600085613a37565b90505b9392505050565b606082471015613aaf5760405162461bcd60e51b815260206004820152602660248201527f416464726573733a20696e73756666696369656e742062616c616e636520666f60448201527f722063616c6c00000000000000000000000000000000000000000000000000006064820152608401610423565b6001600160a01b0385163b613b065760405162461bcd60e51b815260206004820152601d60248201527f416464726573733a2063616c6c20746f206e6f6e2d636f6e74726163740000006044820152606401610423565b600080866001600160a01b03168587604051613b2291906149f1565b60006040518083038185875af1925050503d8060008114613b5f576040519150601f19603f3d011682016040523d82523d6000602084013e613b64565b606091505b5091509150613b74828286613b7f565b979650505050505050565b60608315613b8e575081613a30565b825115613b9e5782518084602001fd5b8160405162461bcd60e51b81526004016104239190614a03565b6001600160a01b038116811461132f57600080fd5b8035613bd881613bb8565b919050565b60008083601f840112613bef57600080fd5b50813567ffffffffffffffff811115613c0757600080fd5b6020830191508360208260051b8501011115613c2257600080fd5b9250929050565b600080600080600060808688031215613c4157600080fd5b8535613c4c81613bb8565b9450602086013593506040860135613c6381613bb8565b9250606086013567ffffffffffffffff811115613c7f57600080fd5b613c8b88828901613bdd565b969995985093965092949392505050565b600081518084526020808501945080840160005b83811015613ccc57815187529582019590820190600101613cb0565b509495945050505050565b602081526000612b1e6020830184613c9c565b600080600080600060808688031215613d0257600080fd5b8535613d0d81613bb8565b9450602086013593506040860135613d2481613bb8565b9250606086013567ffffffffffffffff80821115613d4157600080fd5b818801915088601f830112613d5557600080fd5b813581811115613d6457600080fd5b89602060c083028501011115613d7957600080fd5b9699959850939650602001949392505050565b634e487b7160e01b600052604160045260246000fd5b60405160e0810167ffffffffffffffff81118282101715613dc557613dc5613d8c565b60405290565b60405160c0810167ffffffffffffffff81118282101715613dc557613dc5613d8c565b6040516060810167ffffffffffffffff81118282101715613dc557613dc5613d8c565b604051601f8201601f1916810167ffffffffffffffff81118282101715613e3a57613e3a613d8c565b604052919050565b600067ffffffffffffffff821115613e5c57613e5c613d8c565b5060051b60200190565b600082601f830112613e7757600080fd5b81356020613e8c613e8783613e42565b613e11565b82815260059290921b84018101918181019086841115613eab57600080fd5b8286015b84811015613ec65780358352918301918301613eaf565b509695505050505050565b600082601f830112613ee257600080fd5b81356020613ef2613e8783613e42565b82815260059290921b84018101918181019086841115613f1157600080fd5b8286015b84811015613ec6578035613f2881613bb8565b8352918301918301613f15565b600060e08284031215613f4757600080fd5b613f4f613da2565b9050613f5a82613bcd565b815260208201356020820152613f7260408301613bcd565b6040820152613f8360608301613bcd565b6060820152608082013567ffffffffffffffff80821115613fa357600080fd5b613faf85838601613e66565b608084015260a0840135915080821115613fc857600080fd5b613fd485838601613ed1565b60a084015260c0840135915080821115613fed57600080fd5b50613ffa84828501613ed1565b60c08301525092915050565b6000614014613e8784613e42565b8381529050602080820190600585901b84018681111561403357600080fd5b845b8181101561406f57803567ffffffffffffffff8111156140555760008081fd5b61406189828901613f35565b855250928201928201614035565b505050509392505050565b600082601f83011261408b57600080fd5b8135602061409b613e8783613e42565b82815260059290921b840181019181810190868411156140ba57600080fd5b8286015b84811015613ec657803567ffffffffffffffff8111156140de5760008081fd5b8701603f810189136140f05760008081fd5b614101898683013560408401614006565b8452509183019183016140be565b600060c0828403121561412157600080fd5b614129613dcb565b905061413482613bcd565b81526020820135602082015261414c60408301613bcd565b604082015261415d60608301613bcd565b6060820152608082013567ffffffffffffffff8082111561417d57600080fd5b61418985838601613e66565b608084015260a08401359150808211156141a257600080fd5b506141af8482850161407a565b60a08301525092915050565b600060c082840312156141cd57600080fd5b6141d5613dcb565b905081356141e281613bb8565b81526020828101359082015260408201356141fc81613bb8565b6040820152606082013561420f81613bb8565b6060820152608082013561422281613bb8565b608082015260a082013561423581613bb8565b60a082015292915050565b600082601f83011261425157600080fd5b81356020614261613e8783613e42565b82815260c0928302850182019282820191908785111561428057600080fd5b8387015b858110156142a35761429689826141bb565b8452928401928101614284565b5090979650505050505050565b600080600080600080600060e0888a0312156142cb57600080fd5b6142d58835613bb8565b87359650602088013595506142ed6040890135613bb8565b6040880135945067ffffffffffffffff6060890135111561430d57600080fd5b61431d8960608a01358a0161410f565b935067ffffffffffffffff6080890135111561433857600080fd5b6080880135880189601f82011261434e57600080fd5b61435b613e878235613e42565b81358082526020808301929160051b8401018c101561437957600080fd5b602083015b6020843560051b85010181101561442c5767ffffffffffffffff813511156143a557600080fd5b6060813585018e03601f190112156143bc57600080fd5b6143c4613dee565b6143d46020833587010135613bb8565b81358501602081810135835260408201359083015267ffffffffffffffff606090910135111561440357600080fd5b6144198e83358701606081013501602001614240565b604082015283526020928301920161437e565b50989b979a50959894979660a0860135965060c090950135949350505050565b60006020828403121561445e57600080fd5b8135612b1e81613bb8565b6000806000806080858703121561447f57600080fd5b843561448a81613bb8565b93506020850135925060408501356144a181613bb8565b9150606085013567ffffffffffffffff8111156144bd57600080fd5b850160c081880312156144cf57600080fd5b939692955090935050565b600080600080600080600080600060a08a8c0312156144f857600080fd5b893567ffffffffffffffff8082111561451057600080fd5b61451c8d838e01613bdd565b909b50995060208c013591508082111561453557600080fd5b6145418d838e01613bdd565b909950975060408c013591508082111561455a57600080fd5b6145668d838e01613bdd565b909750955060608c0135915061457b82613bb8565b90935060808b0135908082111561459157600080fd5b818c0191508c601f8301126145a557600080fd5b8135818111156145b457600080fd5b8d60208285010111156145c657600080fd5b6020830194508093505050509295985092959850929598565b600080604083850312156145f257600080fd5b823567ffffffffffffffff8082111561460a57600080fd5b61461686838701613ed1565b9350602085013591508082111561462c57600080fd5b5061463985828601613e66565b9150509250929050565b6000806000806080858703121561465957600080fd5b843561466481613bb8565b935060208501359250604085013561467b81613bb8565b9150606085013567ffffffffffffffff81111561469757600080fd5b850160e081880312156144cf57600080fd5b634e487b7160e01b600052603260045260246000fd5b6000823560de198336030181126146d557600080fd5b9190910192915050565b634e487b7160e01b600052601160045260246000fd5b600082821015614707576147076146df565b500390565b6000612b1e368484614006565b600060c0828403121561472b57600080fd5b612b1e83836141bb565b60006020828403121561474757600080fd5b5051919050565b60008219821115614761576147616146df565b500190565b602080825282518282018190526000919060409081850190868401855b828110156147e357815180516001600160a01b03908116865287820151888701528682015181168787015260608083015182169087015260808083015182169087015260a091820151169085015260c09093019290850190600101614783565b5091979650505050505050565b600060018201614802576148026146df565b5060010190565b6000612b21368361410f565b60006020828403121561482757600080fd5b813567ffffffffffffffff81111561483e57600080fd5b61484a84828501614240565b949350505050565b60006020828403121561486457600080fd5b81518015158114612b1e57600080fd5b6000612b213683613f35565b600081600019048311821515161561489a5761489a6146df565b500290565b6000826148bc57634e487b7160e01b600052601260045260246000fd5b500490565b60005b838110156148dc5781810151838201526020016148c4565b83811115612d9c5750506000910152565b600081518084526149058160208601602086016148c1565b601f01601f19169290920160200192915050565b600060e082016001600160a01b03808b168452602060e081860152828b5180855261010087019150828d01945060005b81811015614967578551851683529483019491830191600101614949565b5050858103604087015261497b818c613c9c565b935050505082810360608401526149928188613c9c565b6001600160a01b0387166080850152905082810360a08401526149b581866148ed565b9150506149c860c083018461ffff169052565b98975050505050505050565b6000602082840312156149e657600080fd5b8151612b1e81613bb8565b600082516146d58184602087016148c1565b602081526000612b1e60208301846148ed56fea26469706673582212209a5fbffca1e9b9855076fab546fd5ee15b6c7e3fafbca434eadd51cd8897f22064736f6c634300080f0033",
  "devdoc": {
    "author": "fortoon21",
    "kind": "dev",
    "methods": {
      "executeOperation(address[],uint256[],uint256[],address,bytes)": {
        "details": "This function must be called only be the LENDING_POOL and takes care of repaying active debt positions, migrating collateral and incurring new V2 debt token debt.",
        "params": {
          "amounts": "The array of flash loaned asset amounts used to repay debts.",
          "assets": "The array of flash loaned assets used to repay debts.",
          "initiator": "The address that initiated the flash loan, unused.",
          "params": "The byte array containing, in this case, the arrays of aTokens and aTokenAmounts.",
          "premiums": "The array of premiums incurred as additional debts."
        }
      },
      "owner()": {
        "details": "Returns the address of the current owner."
      },
      "renounceOwnership()": {
        "details": "Leaves the contract without owner. It will not be possible to call `onlyOwner` functions anymore. Can only be called by the current owner. NOTE: Renouncing ownership will leave the contract without an owner, thereby removing any functionality that is only available to the owner."
      },
      "transferOwnership(address)": {
        "details": "Transfers ownership of the contract to a new account (`newOwner`). Can only be called by the current owner."
      },
      "withdraw(address)": {
        "details": "Withdraw asset.",
        "params": {
          "_assetAddress": "Asset to be withdrawn."
        }
      }
    },
    "title": "RouteProxy",
    "version": 1
  },
  "userdoc": {
    "kind": "user",
    "methods": {},
    "notice": "Split trading Need to wrap matic address in the following pool convention",
    "version": 1
  },
  "storageLayout": {
    "storage": [
      {
        "astId": 7,
        "contract": "contracts/SmartRoute/proxies/RouteProxy.sol:RouteProxy",
        "label": "_owner",
        "offset": 0,
        "slot": "0",
        "type": "t_address"
      }
    ],
    "types": {
      "t_address": {
        "encoding": "inplace",
        "label": "address",
        "numberOfBytes": "20"
      }
    }
  }
}