{
  "address": "0xD29D223F41d97496baed0df42583Ab2a183664cc",
  "abi": [
    {
      "inputs": [
        {
          "internalType": "address[]",
          "name": "factories",
          "type": "address[]"
        },
        {
          "internalType": "address[]",
          "name": "wMatics",
          "type": "address[]"
        }
      ],
      "stateMutability": "nonpayable",
      "type": "constructor"
    },
    {
      "anonymous": false,
      "inputs": [
        {
          "indexed": true,
          "internalType": "address",
          "name": "previousOwner",
          "type": "address"
        },
        {
          "indexed": true,
          "internalType": "address",
          "name": "newOwner",
          "type": "address"
        }
      ],
      "name": "OwnershipTransferred",
      "type": "event"
    },
    {
      "anonymous": false,
      "inputs": [
        {
          "indexed": false,
          "internalType": "address",
          "name": "factory",
          "type": "address"
        },
        {
          "indexed": false,
          "internalType": "address",
          "name": "wMatic",
          "type": "address"
        }
      ],
      "name": "changeWMATIC",
      "type": "event"
    },
    {
      "anonymous": false,
      "inputs": [
        {
          "indexed": false,
          "internalType": "address",
          "name": "wMatic",
          "type": "address"
        }
      ],
      "name": "setWMATIC",
      "type": "event"
    },
    {
      "anonymous": false,
      "inputs": [
        {
          "indexed": false,
          "internalType": "address",
          "name": "wMatic",
          "type": "address"
        }
      ],
      "name": "unsetWMATIC",
      "type": "event"
    },
    {
      "inputs": [
        {
          "internalType": "address[]",
          "name": "factories",
          "type": "address[]"
        },
        {
          "internalType": "address[]",
          "name": "wMatics",
          "type": "address[]"
        }
      ],
      "name": "changeWMatic",
      "outputs": [],
      "stateMutability": "nonpayable",
      "type": "function"
    },
    {
      "inputs": [
        {
          "internalType": "address",
          "name": "token",
          "type": "address"
        }
      ],
      "name": "checkWMatic",
      "outputs": [
        {
          "internalType": "bool",
          "name": "",
          "type": "bool"
        }
      ],
      "stateMutability": "view",
      "type": "function"
    },
    {
      "inputs": [
        {
          "internalType": "address",
          "name": "pool",
          "type": "address"
        }
      ],
      "name": "factory",
      "outputs": [
        {
          "internalType": "address",
          "name": "",
          "type": "address"
        }
      ],
      "stateMutability": "nonpayable",
      "type": "function"
    },
    {
      "inputs": [
        {
          "internalType": "address",
          "name": "",
          "type": "address"
        }
      ],
      "name": "factoryToWMatic",
      "outputs": [
        {
          "internalType": "address",
          "name": "",
          "type": "address"
        }
      ],
      "stateMutability": "view",
      "type": "function"
    },
    {
      "inputs": [
        {
          "internalType": "address",
          "name": "fromToken",
          "type": "address"
        },
        {
          "internalType": "uint256",
          "name": "amountIn",
          "type": "uint256"
        },
        {
          "internalType": "address",
          "name": "toToken",
          "type": "address"
        },
        {
          "internalType": "address",
          "name": "pool",
          "type": "address"
        }
      ],
      "name": "getAmountOut",
      "outputs": [
        {
          "internalType": "uint256",
          "name": "_output",
          "type": "uint256"
        }
      ],
      "stateMutability": "view",
      "type": "function"
    },
    {
      "inputs": [
        {
          "internalType": "address",
          "name": "factory",
          "type": "address"
        }
      ],
      "name": "getWMatic",
      "outputs": [
        {
          "internalType": "address",
          "name": "",
          "type": "address"
        }
      ],
      "stateMutability": "view",
      "type": "function"
    },
    {
      "inputs": [
        {
          "internalType": "address",
          "name": "",
          "type": "address"
        }
      ],
      "name": "isMatic",
      "outputs": [
        {
          "internalType": "uint8",
          "name": "",
          "type": "uint8"
        }
      ],
      "stateMutability": "view",
      "type": "function"
    },
    {
      "inputs": [],
      "name": "owner",
      "outputs": [
        {
          "internalType": "address",
          "name": "",
          "type": "address"
        }
      ],
      "stateMutability": "view",
      "type": "function"
    },
    {
      "inputs": [],
      "name": "renounceOwnership",
      "outputs": [],
      "stateMutability": "nonpayable",
      "type": "function"
    },
    {
      "inputs": [
        {
          "internalType": "address",
          "name": "fromToken",
          "type": "address"
        },
        {
          "internalType": "uint256",
          "name": "amountIn",
          "type": "uint256"
        },
        {
          "internalType": "address",
          "name": "toToken",
          "type": "address"
        },
        {
          "internalType": "address",
          "name": "pool",
          "type": "address"
        },
        {
          "internalType": "address",
          "name": "to",
          "type": "address"
        }
      ],
      "name": "swapExactIn",
      "outputs": [
        {
          "internalType": "uint256",
          "name": "_output",
          "type": "uint256"
        }
      ],
      "stateMutability": "nonpayable",
      "type": "function"
    },
    {
      "inputs": [
        {
          "internalType": "address",
          "name": "newOwner",
          "type": "address"
        }
      ],
      "name": "transferOwnership",
      "outputs": [],
      "stateMutability": "nonpayable",
      "type": "function"
    }
  ],
  "transactionHash": "0x06fe34b7d62b83ecbca56bd505d67e4ad7cc4c1430b828ca220b3f56d6015faa",
  "args": [
    [
      "0x5757371414417b8C6CAad45bAeF941aBc7d3Ab32",
      "0xc35DADB65012eC5796536bD9864eD8773aBc74C4"
    ],
    [
      "0x0d500b1d8e8ef31e21c99d1db9a6444d3adf1270",
      "0x5b67676a984807a212b1c59ebfc9b3568a474f0a"
    ]
  ],
  "numDeployments": 1,
  "solcInputHash": "36479a67904949b8fba17c4401077ab8",
  "bytecode": "0x60806040523480156200001157600080fd5b506040516200148138038062001481833981016040819052620000349162000446565b6001600055620000443362000058565b620000508282620000aa565b5050620004ee565b600180546001600160a01b038381166001600160a01b0319831681179093556040519116919082907f8be0079c531659141344cd1fd0a4f28419497f9722a3daafe3b4186f6b6457e090600090a35050565b60005b81518110156200026c5760006001600160a01b0316828281518110620000d757620000d7620004b0565b60200260200101516001600160a01b03160362000121576200011b828281518110620001075762000107620004b0565b60200260200101516200027160201b60201c565b6200014e565b6200014e8282815181106200013a576200013a620004b0565b6020026020010151620002ee60201b60201c565b818181518110620001635762000163620004b0565b602002602001015160036000858481518110620001845762000184620004b0565b60200260200101516001600160a01b03166001600160a01b0316815260200190815260200160002060006101000a8154816001600160a01b0302191690836001600160a01b031602179055507fd8d262969076702e5547563df196d404bfce804cda75b127297b4fd27bb1bf45838281518110620002065762000206620004b0565b6020026020010151838381518110620002235762000223620004b0565b60200260200101516040516200024f9291906001600160a01b0392831681529116602082015260400190565b60405180910390a1806200026381620004c6565b915050620000ad565b505050565b6001600160a01b03811660009081526002602052604090205460ff16600103620002eb576001600160a01b038116600081815260026020908152604091829020805460ff1916905590519182527f84333c02f52801cb6b335fef47a4230820c52891631eb98fd13af7700968ef7091015b60405180910390a15b50565b6001600160a01b03811660009081526002602052604081205460ff169003620002eb576001600160a01b038116600081815260026020908152604091829020805460ff1916600117905590519182527f12330f5d993a026a582eaf3d6aa6cf59ba0ec304eece453a338ed3292ab0d42f9101620002e2565b634e487b7160e01b600052604160045260246000fd5b80516001600160a01b03811681146200039457600080fd5b919050565b600082601f830112620003ab57600080fd5b815160206001600160401b0380831115620003ca57620003ca62000366565b8260051b604051601f19603f83011681018181108482111715620003f257620003f262000366565b6040529384528581018301938381019250878511156200041157600080fd5b83870191505b848210156200043b576200042b826200037c565b8352918301919083019062000417565b979650505050505050565b600080604083850312156200045a57600080fd5b82516001600160401b03808211156200047257600080fd5b620004808683870162000399565b935060208501519150808211156200049757600080fd5b50620004a68582860162000399565b9150509250929050565b634e487b7160e01b600052603260045260246000fd5b600060018201620004e757634e487b7160e01b600052601160045260246000fd5b5060010190565b610f8380620004fe6000396000f3fe608060405234801561001057600080fd5b50600436106100c95760003560e01c806343f30b29116100815780638da5cb5b1161005b5780638da5cb5b14610205578063cba68ed814610216578063f2fde38b1461022957600080fd5b806343f30b2914610192578063715018a6146101d15780637a5004d9146101d957600080fd5b8063395c0fda116100b2578063395c0fda146101095780633a8daded146101345780633f293cc21461016957600080fd5b80631ad0cdb5146100ce578063368a0b18146100f4575b600080fd5b6100e16100dc366004610bbc565b61023c565b6040519081526020015b60405180910390f35b610107610102366004610cc7565b610510565b005b61011c610117366004610d2b565b610526565b6040516001600160a01b0390911681526020016100eb565b610157610142366004610d2b565b60026020526000908152604090205460ff1681565b60405160ff90911681526020016100eb565b61011c610177366004610d2b565b6003602052600090815260409020546001600160a01b031681565b6101c16101a0366004610d2b565b6001600160a01b031660009081526002602052604090205460ff1660011490565b60405190151581526020016100eb565b610107610592565b61011c6101e7366004610d2b565b6001600160a01b039081166000908152600360205260409020541690565b6001546001600160a01b031661011c565b6100e1610224366004610d48565b6105a6565b610107610237366004610d2b565b6106d9565b60008084116102b85760405162461bcd60e51b815260206004820152602b60248201527f556e697377617056324c6962726172793a20494e53554646494349454e545f4960448201527f4e5055545f414d4f554e5400000000000000000000000000000000000000000060648201526084015b60405180910390fd5b600080836001600160a01b0316630902f1ac6040518163ffffffff1660e01b8152600401606060405180830381865afa1580156102f9573d6000803e3d6000fd5b505050506040513d601f19601f8201168201806040525081019061031d9190610dce565b506dffffffffffffffffffffffffffff1691506dffffffffffffffffffffffffffff1691506000821180156103525750600081115b6103c45760405162461bcd60e51b815260206004820152602860248201527f556e697377617056324c6962726172793a20494e53554646494349454e545f4c60448201527f495155494449545900000000000000000000000000000000000000000000000060648201526084016102af565b6000806000866001600160a01b0316630dfe16816040518163ffffffff1660e01b8152600401602060405180830381865afa158015610407573d6000803e3d6000fd5b505050506040513d601f19601f8201168201806040525081019061042b9190610e1e565b9050806001600160a01b03168a6001600160a01b031603610451578492508391506104bd565b806001600160a01b0316886001600160a01b031603610475578392508491506104bd565b60405162461bcd60e51b815260206004820152601c60248201527f4e6f742076616c69642066726f6d2d746f20746f6b656e20706169720000000060448201526064016102af565b60006104cb8a6103e5610769565b905060006104d98285610769565b905060006104f3836104ed886103e8610769565b906107e8565b90506104ff8183610e51565b9d9c50505050505050505050505050565b610518610847565b61052282826108a1565b5050565b6000816001600160a01b031663c45a01556040518163ffffffff1660e01b81526004016020604051808303816000875af1158015610568573d6000803e3d6000fd5b505050506040513d601f19601f8201168201806040525081019061058c9190610e1e565b92915050565b61059a610847565b6105a46000610a3c565b565b60006105b48686868661023c565b9050600080846001600160a01b0316630dfe16816040518163ffffffff1660e01b8152600401602060405180830381865afa1580156105f7573d6000803e3d6000fd5b505050506040513d601f19601f8201168201806040525081019061061b9190610e1e565b6001600160a01b0316886001600160a01b03161461063b5782600061063f565b6000835b604080516000815260208101918290527f022c0d9f0000000000000000000000000000000000000000000000000000000090915291935091506001600160a01b0386169063022c0d9f9061069c9085908590899060248101610e73565b600060405180830381600087803b1580156106b657600080fd5b505af11580156106ca573d6000803e3d6000fd5b50505050505095945050505050565b6106e1610847565b6001600160a01b03811661075d5760405162461bcd60e51b815260206004820152602660248201527f4f776e61626c653a206e6577206f776e657220697320746865207a65726f206160448201527f646472657373000000000000000000000000000000000000000000000000000060648201526084016102af565b61076681610a3c565b50565b60008260000361077b5750600061058c565b60006107878385610ee7565b9050826107948583610e51565b146107e15760405162461bcd60e51b815260206004820152600960248201527f4d554c5f4552524f52000000000000000000000000000000000000000000000060448201526064016102af565b9392505050565b6000806107f58385610f06565b9050838110156107e15760405162461bcd60e51b815260206004820152600960248201527f4144445f4552524f52000000000000000000000000000000000000000000000060448201526064016102af565b6001546001600160a01b031633146105a45760405162461bcd60e51b815260206004820181905260248201527f4f776e61626c653a2063616c6c6572206973206e6f7420746865206f776e657260448201526064016102af565b60005b8151811015610a375760006001600160a01b03168282815181106108ca576108ca610f1e565b60200260200101516001600160a01b031603610907576109028282815181106108f5576108f5610f1e565b6020026020010151610aa6565b610929565b61092982828151811061091c5761091c610f1e565b6020026020010151610b21565b81818151811061093b5761093b610f1e565b60200260200101516003600085848151811061095957610959610f1e565b60200260200101516001600160a01b03166001600160a01b0316815260200190815260200160002060006101000a8154816001600160a01b0302191690836001600160a01b031602179055507fd8d262969076702e5547563df196d404bfce804cda75b127297b4fd27bb1bf458382815181106109d8576109d8610f1e565b60200260200101518383815181106109f2576109f2610f1e565b6020026020010151604051610a1d9291906001600160a01b0392831681529116602082015260400190565b60405180910390a180610a2f81610f34565b9150506108a4565b505050565b600180546001600160a01b038381167fffffffffffffffffffffffff0000000000000000000000000000000000000000831681179093556040519116919082907f8be0079c531659141344cd1fd0a4f28419497f9722a3daafe3b4186f6b6457e090600090a35050565b6001600160a01b03811660009081526002602052604090205460ff16600103610766576001600160a01b038116600081815260026020908152604091829020805460ff1916905590519182527f84333c02f52801cb6b335fef47a4230820c52891631eb98fd13af7700968ef7091015b60405180910390a150565b6001600160a01b03811660009081526002602052604081205460ff169003610766576001600160a01b038116600081815260026020908152604091829020805460ff1916600117905590519182527f12330f5d993a026a582eaf3d6aa6cf59ba0ec304eece453a338ed3292ab0d42f9101610b16565b6001600160a01b038116811461076657600080fd5b8035610bb781610b97565b919050565b60008060008060808587031215610bd257600080fd5b8435610bdd81610b97565b9350602085013592506040850135610bf481610b97565b91506060850135610c0481610b97565b939692955090935050565b634e487b7160e01b600052604160045260246000fd5b600082601f830112610c3657600080fd5b8135602067ffffffffffffffff80831115610c5357610c53610c0f565b8260051b604051601f19603f83011681018181108482111715610c7857610c78610c0f565b604052938452858101830193838101925087851115610c9657600080fd5b83870191505b84821015610cbc57610cad82610bac565b83529183019190830190610c9c565b979650505050505050565b60008060408385031215610cda57600080fd5b823567ffffffffffffffff80821115610cf257600080fd5b610cfe86838701610c25565b93506020850135915080821115610d1457600080fd5b50610d2185828601610c25565b9150509250929050565b600060208284031215610d3d57600080fd5b81356107e181610b97565b600080600080600060a08688031215610d6057600080fd5b8535610d6b81610b97565b9450602086013593506040860135610d8281610b97565b92506060860135610d9281610b97565b91506080860135610da281610b97565b809150509295509295909350565b80516dffffffffffffffffffffffffffff81168114610bb757600080fd5b600080600060608486031215610de357600080fd5b610dec84610db0565b9250610dfa60208501610db0565b9150604084015163ffffffff81168114610e1357600080fd5b809150509250925092565b600060208284031215610e3057600080fd5b81516107e181610b97565b634e487b7160e01b600052601160045260246000fd5b600082610e6e57634e487b7160e01b600052601260045260246000fd5b500490565b8481526000602085818401526001600160a01b038516604084015260806060840152835180608085015260005b81811015610ebc5785810183015185820160a001528201610ea0565b81811115610ece57600060a083870101525b50601f01601f19169290920160a0019695505050505050565b6000816000190483118215151615610f0157610f01610e3b565b500290565b60008219821115610f1957610f19610e3b565b500190565b634e487b7160e01b600052603260045260246000fd5b600060018201610f4657610f46610e3b565b506001019056fea26469706673582212201238f2d217de90eb3c04517193f29164fba7d597baf54d3ffecb5f372cfadc9164736f6c634300080f0033",
  "devdoc": {
    "kind": "dev",
    "methods": {
      "owner()": {
        "details": "Returns the address of the current owner."
      },
      "renounceOwnership()": {
        "details": "Leaves the contract without owner. It will not be possible to call `onlyOwner` functions anymore. Can only be called by the current owner. NOTE: Renouncing ownership will leave the contract without an owner, thereby removing any functionality that is only available to the owner."
      },
      "transferOwnership(address)": {
        "details": "Transfers ownership of the contract to a new account (`newOwner`). Can only be called by the current owner."
      }
    },
    "version": 1
  },
  "userdoc": {
    "kind": "user",
    "methods": {},
    "version": 1
  },
  "storageLayout": {
    "storage": [
      {
        "astId": 126,
        "contract": "contracts/SmartRoute/adapter/UniAdapter.sol:UniAdapter",
        "label": "_status",
        "offset": 0,
        "slot": "0",
        "type": "t_uint256"
      },
      {
        "astId": 7,
        "contract": "contracts/SmartRoute/adapter/UniAdapter.sol:UniAdapter",
        "label": "_owner",
        "offset": 0,
        "slot": "1",
        "type": "t_address"
      },
      {
        "astId": 2890,
        "contract": "contracts/SmartRoute/adapter/UniAdapter.sol:UniAdapter",
        "label": "isMatic",
        "offset": 0,
        "slot": "2",
        "type": "t_mapping(t_address,t_uint8)"
      },
      {
        "astId": 2894,
        "contract": "contracts/SmartRoute/adapter/UniAdapter.sol:UniAdapter",
        "label": "factoryToWMatic",
        "offset": 0,
        "slot": "3",
        "type": "t_mapping(t_address,t_address)"
      }
    ],
    "types": {
      "t_address": {
        "encoding": "inplace",
        "label": "address",
        "numberOfBytes": "20"
      },
      "t_mapping(t_address,t_address)": {
        "encoding": "mapping",
        "key": "t_address",
        "label": "mapping(address => address)",
        "numberOfBytes": "32",
        "value": "t_address"
      },
      "t_mapping(t_address,t_uint8)": {
        "encoding": "mapping",
        "key": "t_address",
        "label": "mapping(address => uint8)",
        "numberOfBytes": "32",
        "value": "t_uint8"
      },
      "t_uint256": {
        "encoding": "inplace",
        "label": "uint256",
        "numberOfBytes": "32"
      },
      "t_uint8": {
        "encoding": "inplace",
        "label": "uint8",
        "numberOfBytes": "1"
      }
    }
  }
}